{
  "_format": "hh-sol-artifact-1",
  "contractName": "RevenueSplitter",
  "sourceName": "contracts/RevenueSplitter.sol",
  "abi": [
    {
      "inputs": [],
      "stateMutability": "nonpayable",
      "type": "constructor"
    },
    {
      "anonymous": false,
      "inputs": [
        {
          "indexed": false,
          "internalType": "address",
          "name": "account",
          "type": "address"
        },
        {
          "indexed": false,
          "internalType": "uint256",
          "name": "shares",
          "type": "uint256"
        }
      ],
      "name": "PayeeAdded",
      "type": "event"
    },
    {
      "anonymous": false,
      "inputs": [
        {
          "indexed": false,
          "internalType": "address",
          "name": "from",
          "type": "address"
        },
        {
          "indexed": false,
          "internalType": "uint256",
          "name": "amount",
          "type": "uint256"
        }
      ],
      "name": "PaymentReceived",
      "type": "event"
    },
    {
      "anonymous": false,
      "inputs": [
        {
          "indexed": false,
          "internalType": "address",
          "name": "to",
          "type": "address"
        },
        {
          "indexed": false,
          "internalType": "uint256",
          "name": "amount",
          "type": "uint256"
        }
      ],
      "name": "PaymentReleased",
      "type": "event"
    },
    {
      "inputs": [
        {
          "internalType": "address",
          "name": "account",
          "type": "address"
        },
        {
          "internalType": "uint256",
          "name": "shares_",
          "type": "uint256"
        }
      ],
      "name": "addPayee",
      "outputs": [],
      "stateMutability": "nonpayable",
      "type": "function"
    },
    {
      "inputs": [],
      "name": "owner",
      "outputs": [
        {
          "internalType": "address",
          "name": "",
          "type": "address"
        }
      ],
      "stateMutability": "view",
      "type": "function"
    },
    {
      "inputs": [
        {
          "internalType": "uint256",
          "name": "",
          "type": "uint256"
        }
      ],
      "name": "payees",
      "outputs": [
        {
          "internalType": "address",
          "name": "",
          "type": "address"
        }
      ],
      "stateMutability": "view",
      "type": "function"
    },
    {
      "inputs": [
        {
          "internalType": "address payable",
          "name": "account",
          "type": "address"
        }
      ],
      "name": "release",
      "outputs": [],
      "stateMutability": "nonpayable",
      "type": "function"
    },
    {
      "inputs": [
        {
          "internalType": "address",
          "name": "",
          "type": "address"
        }
      ],
      "name": "released",
      "outputs": [
        {
          "internalType": "uint256",
          "name": "",
          "type": "uint256"
        }
      ],
      "stateMutability": "view",
      "type": "function"
    },
    {
      "inputs": [
        {
          "internalType": "address",
          "name": "",
          "type": "address"
        }
      ],
      "name": "shares",
      "outputs": [
        {
          "internalType": "uint256",
          "name": "",
          "type": "uint256"
        }
      ],
      "stateMutability": "view",
      "type": "function"
    },
    {
      "inputs": [],
      "name": "totalReleased",
      "outputs": [
        {
          "internalType": "uint256",
          "name": "",
          "type": "uint256"
        }
      ],
      "stateMutability": "view",
      "type": "function"
    },
    {
      "inputs": [],
      "name": "totalShares",
      "outputs": [
        {
          "internalType": "uint256",
          "name": "",
          "type": "uint256"
        }
      ],
      "stateMutability": "view",
      "type": "function"
    },
    {
      "stateMutability": "payable",
      "type": "receive"
    }
  ],
  "bytecode": "0x608060405234801561001057600080fd5b50336000806101000a81548173ffffffffffffffffffffffffffffffffffffffff021916908373ffffffffffffffffffffffffffffffffffffffff160217905550610f1c806100606000396000f3fe60806040526004361061007f5760003560e01c80638da5cb5b1161004e5780638da5cb5b1461017e5780639852595c146101a9578063ce7c2ac2146101e6578063e33b7de314610223576100bf565b806318f9b023146100c457806319165587146100ed5780633a98ef391461011657806363037b0c14610141576100bf565b366100bf577f6ef95f06320e7a25a04a175ca677b7052bdd97131872c2192525a629f51be77033346040516100b59291906108a5565b60405180910390a1005b600080fd5b3480156100d057600080fd5b506100eb60048036038101906100e6919061092b565b61024e565b005b3480156100f957600080fd5b50610114600480360381019061010f91906109a9565b610508565b005b34801561012257600080fd5b5061012b6107ac565b60405161013891906109d6565b60405180910390f35b34801561014d57600080fd5b50610168600480360381019061016391906109f1565b6107b2565b6040516101759190610a1e565b60405180910390f35b34801561018a57600080fd5b506101936107f1565b6040516101a09190610a1e565b60405180910390f35b3480156101b557600080fd5b506101d060048036038101906101cb9190610a39565b610815565b6040516101dd91906109d6565b60405180910390f35b3480156101f257600080fd5b5061020d60048036038101906102089190610a39565b61082d565b60405161021a91906109d6565b60405180910390f35b34801561022f57600080fd5b50610238610845565b60405161024591906109d6565b60405180910390f35b60008054906101000a900473ffffffffffffffffffffffffffffffffffffffff1673ffffffffffffffffffffffffffffffffffffffff163373ffffffffffffffffffffffffffffffffffffffff16146102dc576040517f08c379a00000000000000000000000000000000000000000000000000000000081526004016102d390610ac3565b60405180910390fd5b600073ffffffffffffffffffffffffffffffffffffffff168273ffffffffffffffffffffffffffffffffffffffff160361034b576040517f08c379a000000000000000000000000000000000000000000000000000000000815260040161034290610b2f565b60405180910390fd5b6000811161038e576040517f08c379a000000000000000000000000000000000000000000000000000000000815260040161038590610b9b565b60405180910390fd5b6000600360008473ffffffffffffffffffffffffffffffffffffffff1673ffffffffffffffffffffffffffffffffffffffff1681526020019081526020016000205414610410576040517f08c379a000000000000000000000000000000000000000000000000000000000815260040161040790610c2d565b60405180910390fd5b6005829080600181540180825580915050600190039060005260206000200160009091909190916101000a81548173ffffffffffffffffffffffffffffffffffffffff021916908373ffffffffffffffffffffffffffffffffffffffff16021790555080600360008473ffffffffffffffffffffffffffffffffffffffff1673ffffffffffffffffffffffffffffffffffffffff16815260200190815260200160002081905550806001546104c59190610c7c565b6001819055507f40c340f65e17194d14ddddb073d3c9f888e3cb52b5aae0c6c7706b4fbc905fac82826040516104fc9291906108a5565b60405180910390a15050565b6000600360008373ffffffffffffffffffffffffffffffffffffffff1673ffffffffffffffffffffffffffffffffffffffff168152602001908152602001600020541161058a576040517f08c379a000000000000000000000000000000000000000000000000000000000815260040161058190610cfc565b60405180910390fd5b60006002544761059a9190610c7c565b90506000600460008473ffffffffffffffffffffffffffffffffffffffff1673ffffffffffffffffffffffffffffffffffffffff16815260200190815260200160002054600154600360008673ffffffffffffffffffffffffffffffffffffffff1673ffffffffffffffffffffffffffffffffffffffff168152602001908152602001600020548461062c9190610d1c565b6106369190610d8d565b6106409190610dbe565b905060008111610685576040517f08c379a000000000000000000000000000000000000000000000000000000000815260040161067c90610e3e565b60405180910390fd5b80600460008573ffffffffffffffffffffffffffffffffffffffff1673ffffffffffffffffffffffffffffffffffffffff168152602001908152602001600020546106d09190610c7c565b600460008573ffffffffffffffffffffffffffffffffffffffff1673ffffffffffffffffffffffffffffffffffffffff16815260200190815260200160002081905550806002546107219190610c7c565b6002819055508273ffffffffffffffffffffffffffffffffffffffff166108fc829081150290604051600060405180830381858888f1935050505015801561076d573d6000803e3d6000fd5b507fdf20fd1e76bc69d672e4814fafb2c449bba3a5369d8359adf9e05e6fde87b056838260405161079f929190610ebd565b60405180910390a1505050565b60015481565b600581815481106107c257600080fd5b906000526020600020016000915054906101000a900473ffffffffffffffffffffffffffffffffffffffff1681565b60008054906101000a900473ffffffffffffffffffffffffffffffffffffffff1681565b60046020528060005260406000206000915090505481565b60036020528060005260406000206000915090505481565b60025481565b600073ffffffffffffffffffffffffffffffffffffffff82169050919050565b60006108768261084b565b9050919050565b6108868161086b565b82525050565b6000819050919050565b61089f8161088c565b82525050565b60006040820190506108ba600083018561087d565b6108c76020830184610896565b9392505050565b600080fd5b6108dc8161086b565b81146108e757600080fd5b50565b6000813590506108f9816108d3565b92915050565b6109088161088c565b811461091357600080fd5b50565b600081359050610925816108ff565b92915050565b60008060408385031215610942576109416108ce565b5b6000610950858286016108ea565b925050602061096185828601610916565b9150509250929050565b60006109768261084b565b9050919050565b6109868161096b565b811461099157600080fd5b50565b6000813590506109a38161097d565b92915050565b6000602082840312156109bf576109be6108ce565b5b60006109cd84828501610994565b91505092915050565b60006020820190506109eb6000830184610896565b92915050565b600060208284031215610a0757610a066108ce565b5b6000610a1584828501610916565b91505092915050565b6000602082019050610a33600083018461087d565b92915050565b600060208284031215610a4f57610a4e6108ce565b5b6000610a5d848285016108ea565b91505092915050565b600082825260208201905092915050565b7f4f6e6c79206f776e65722063616e20636f6e6669677572652070617965657300600082015250565b6000610aad601f83610a66565b9150610ab882610a77565b602082019050919050565b60006020820190508181036000830152610adc81610aa0565b9050919050565b7f4163636f756e74206973207a65726f2061646472657373000000000000000000600082015250565b6000610b19601783610a66565b9150610b2482610ae3565b602082019050919050565b60006020820190508181036000830152610b4881610b0c565b9050919050565b7f536861726573206d757374206265203e20300000000000000000000000000000600082015250565b6000610b85601283610a66565b9150610b9082610b4f565b602082019050919050565b60006020820190508181036000830152610bb481610b78565b9050919050565b7f4163636f756e7420616c7265616479206861732073686172657320616c6c6f6360008201527f6174656400000000000000000000000000000000000000000000000000000000602082015250565b6000610c17602483610a66565b9150610c2282610bbb565b604082019050919050565b60006020820190508181036000830152610c4681610c0a565b9050919050565b7f4e487b7100000000000000000000000000000000000000000000000000000000600052601160045260246000fd5b6000610c878261088c565b9150610c928361088c565b9250828201905080821115610caa57610ca9610c4d565b5b92915050565b7f4163636f756e7420686173206e6f207368617265730000000000000000000000600082015250565b6000610ce6601583610a66565b9150610cf182610cb0565b602082019050919050565b60006020820190508181036000830152610d1581610cd9565b9050919050565b6000610d278261088c565b9150610d328361088c565b9250828202610d408161088c565b91508282048414831517610d5757610d56610c4d565b5b5092915050565b7f4e487b7100000000000000000000000000000000000000000000000000000000600052601260045260246000fd5b6000610d988261088c565b9150610da38361088c565b925082610db357610db2610d5e565b5b828204905092915050565b6000610dc98261088c565b9150610dd48361088c565b9250828203905081811115610dec57610deb610c4d565b5b92915050565b7f4163636f756e74206973206e6f7420647565207061796d656e74000000000000600082015250565b6000610e28601a83610a66565b9150610e3382610df2565b602082019050919050565b60006020820190508181036000830152610e5781610e1b565b9050919050565b6000819050919050565b6000610e83610e7e610e798461084b565b610e5e565b61084b565b9050919050565b6000610e9582610e68565b9050919050565b6000610ea782610e8a565b9050919050565b610eb781610e9c565b82525050565b6000604082019050610ed26000830185610eae565b610edf6020830184610896565b939250505056fea2646970667358221220c54064a20014618fbbddc3aae2ee69bffc9c0736cd26e129acfe92e50b73867464736f6c63430008140033",
  "linkReferences": {},
  "deployedLinkReferences": {}
}